{
  "contractName": "NFTResolver",
  "abi": [
    {
      "inputs": [
        {
          "internalType": "address",
          "name": "contract_add",
          "type": "address"
        }
      ],
      "name": "checker",
      "outputs": [
        {
          "internalType": "bool",
          "name": "canExec",
          "type": "bool"
        },
        {
          "internalType": "bytes",
          "name": "execPayload",
          "type": "bytes"
        }
      ],
      "stateMutability": "view",
      "type": "function",
      "constant": true
    }
  ],
  "bytecode": "0x608060405234801561000f575f80fd5b506109138061001d5f395ff3fe608060405234801561000f575f80fd5b5060043610610029575f3560e01c8063016c683c1461002d575b5f80fd5b6100476004803603810190610042919061057f565b61005e565b60405161005592919061064e565b60405180910390f35b5f60605f8373ffffffffffffffffffffffffffffffffffffffff16637ee454cb6040518163ffffffff1660e01b81526004015f60405180830381865afa1580156100aa573d5f803e3d5ffd5b505050506040513d5f823e3d601f19601f820116820180604052508101906100d291906107ef565b90505f5b815181101561050c575f5b8573ffffffffffffffffffffffffffffffffffffffff1663f5a651208484815181106101105761010f610836565b5b60200260200101516040518263ffffffff1660e01b81526004016101349190610872565b602060405180830381865afa15801561014f573d5f803e3d5ffd5b505050506040513d601f19601f82011682018060405250810190610173919061088b565b8110156104fe57428673ffffffffffffffffffffffffffffffffffffffff16637fc5a60f8585815181106101aa576101a9610836565b5b60200260200101518973ffffffffffffffffffffffffffffffffffffffff16635ccdfa5e8888815181106101e1576101e0610836565b5b6020026020010151876040518363ffffffff1660e01b81526004016102079291906108b6565b602060405180830381865afa158015610222573d5f803e3d5ffd5b505050506040513d601f19601f82011682018060405250810190610246919061088b565b6040518363ffffffff1660e01b81526004016102639291906108b6565b602060405180830381865afa15801561027e573d5f803e3d5ffd5b505050506040513d601f19601f820116820180604052508101906102a2919061088b565b1080156103d5575060028673ffffffffffffffffffffffffffffffffffffffff1663a745da658585815181106102db576102da610836565b5b60200260200101518973ffffffffffffffffffffffffffffffffffffffff16635ccdfa5e88888151811061031257610311610836565b5b6020026020010151876040518363ffffffff1660e01b81526004016103389291906108b6565b602060405180830381865afa158015610353573d5f803e3d5ffd5b505050506040513d601f19601f82011682018060405250810190610377919061088b565b6040518363ffffffff1660e01b81526004016103949291906108b6565b602060405180830381865afa1580156103af573d5f803e3d5ffd5b505050506040513d601f19601f820116820180604052508101906103d3919061088b565b145b156104f1576342966c6860e01b8673ffffffffffffffffffffffffffffffffffffffff16635ccdfa5e85858151811061041157610410610836565b5b6020026020010151846040518363ffffffff1660e01b81526004016104379291906108b6565b602060405180830381865afa158015610452573d5f803e3d5ffd5b505050506040513d601f19601f82011682018060405250810190610476919061088b565b6040516024016104869190610872565b604051602081830303815290604052907bffffffffffffffffffffffffffffffffffffffffffffffffffffffff19166020820180517bffffffffffffffffffffffffffffffffffffffffffffffffffffffff838183161783525050505093506001945050505061050f565b80806001019150506100e1565b5080806001019150506100d6565b50505b915091565b5f604051905090565b5f80fd5b5f80fd5b5f73ffffffffffffffffffffffffffffffffffffffff82169050919050565b5f61054e82610525565b9050919050565b61055e81610544565b8114610568575f80fd5b50565b5f8135905061057981610555565b92915050565b5f602082840312156105945761059361051d565b5b5f6105a18482850161056b565b91505092915050565b5f8115159050919050565b6105be816105aa565b82525050565b5f81519050919050565b5f82825260208201905092915050565b5f5b838110156105fb5780820151818401526020810190506105e0565b5f8484015250505050565b5f601f19601f8301169050919050565b5f610620826105c4565b61062a81856105ce565b935061063a8185602086016105de565b61064381610606565b840191505092915050565b5f6040820190506106615f8301856105b5565b81810360208301526106738184610616565b90509392505050565b5f80fd5b7f4e487b71000000000000000000000000000000000000000000000000000000005f52604160045260245ffd5b6106b682610606565b810181811067ffffffffffffffff821117156106d5576106d4610680565b5b80604052505050565b5f6106e7610514565b90506106f382826106ad565b919050565b5f67ffffffffffffffff82111561071257610711610680565b5b602082029050602081019050919050565b5f80fd5b5f819050919050565b61073981610727565b8114610743575f80fd5b50565b5f8151905061075481610730565b92915050565b5f61076c610767846106f8565b6106de565b9050808382526020820190506020840283018581111561078f5761078e610723565b5b835b818110156107b857806107a48882610746565b845260208401935050602081019050610791565b5050509392505050565b5f82601f8301126107d6576107d561067c565b5b81516107e684826020860161075a565b91505092915050565b5f602082840312156108045761080361051d565b5b5f82015167ffffffffffffffff81111561082157610820610521565b5b61082d848285016107c2565b91505092915050565b7f4e487b71000000000000000000000000000000000000000000000000000000005f52603260045260245ffd5b61086c81610727565b82525050565b5f6020820190506108855f830184610863565b92915050565b5f602082840312156108a05761089f61051d565b5b5f6108ad84828501610746565b91505092915050565b5f6040820190506108c95f830185610863565b6108d66020830184610863565b939250505056fea2646970667358221220937776513da88777267746c754e24e66adee2f54bd615f8ad76d43b619a5d46e64736f6c63430008160033",
  "immutableReferences": {},
  "source": "//SPDX-License-Identifier: GPL-3.0\r\npragma solidity ^0.8.0;\r\n\r\ninterface INFTWarranty {\r\n    function getSellerNFTs(uint256 sellerId)\r\n        external\r\n        view\r\n        returns (uint256[] memory);\r\n\r\n    function getSellers() external view returns (uint256[] memory);\r\n\r\n    function getExpiry(uint256 sellerId, uint256 tokenId)\r\n        external\r\n        view\r\n        returns (uint256 expiry);\r\n\r\n    function getCreation(uint256 sellerId, uint256 tokenId)\r\n        external\r\n        view\r\n        returns (uint256 creation);\r\n\r\n    function getStatus(uint256 sellerId, uint256 tokenId)\r\n        external\r\n        view\r\n        returns (uint256 stat);\r\n        function getSellerNFT(uint256 sellerId,uint256 Index)external view returns(uint256);\r\n        function getSellerNFTSize(uint256 sellerId)external view returns(uint256);\r\n\r\n    function burn(uint256 tokenId) external;\r\n}\r\n\r\ncontract NFTResolver {\r\n    function checker(address contract_add)\r\n        external\r\n        view\r\n        returns (bool canExec, bytes memory execPayload)\r\n    // returns(uint256 []  memory arr)\r\n    {\r\n        uint256[] memory ans = INFTWarranty(contract_add).getSellers();\r\n        for (uint256 i = 0; i < ans.length; i++) {\r\n\r\n            for (uint256 j = 0; j <  INFTWarranty(contract_add).getSellerNFTSize(ans[i]); j++) {\r\n                //uint256 creationTime =  INFTWarranty(contract_add).getCreation(ans[i],nfts[i]);\r\n                if (\r\n                    (INFTWarranty(contract_add).getExpiry(ans[i],INFTWarranty(contract_add).getSellerNFT(ans[i],j) ) <\r\n                        block.timestamp) &&\r\n                    (INFTWarranty(contract_add).getStatus(ans[i], INFTWarranty(contract_add).getSellerNFT(ans[i],j)) == 2)\r\n                ) {\r\n                    execPayload = abi.encodeWithSelector(\r\n                        INFTWarranty.burn.selector,\r\n                        uint256(INFTWarranty(contract_add).getSellerNFT(ans[i],j))\r\n                    );\r\n                    return (true, execPayload);\r\n                }\r\n                // if (\r\n                //     INFTWarranty(contract_add).getExpiry(ans[i], INFTWarranty(contract_add).getSellerNFT(ans[i],j)) >\r\n                //     block.timestamp ||\r\n                //     INFTWarranty(contract_add).getStatus(ans[i], INFTWarranty(contract_add).getSellerNFT(ans[i],j)) ==\r\n                //     0 ||\r\n                //     INFTWarranty(contract_add).getStatus(ans[i], INFTWarranty(contract_add).getSellerNFT(ans[i],j)) ==\r\n                //     1 ||\r\n                //     INFTWarranty(contract_add).getStatus(ans[i], INFTWarranty(contract_add).getSellerNFT(ans[i],j)) == 3\r\n                // ) {\r\n                //     return (false, bytes(\"Session is ongoing\"));\r\n                // }\r\n            }\r\n        }\r\n    }\r\n}\r\n",
  "sourcePath": "D:\\college\\vsc\\NFTDocket\\contracts\\NFTResolver.sol",
  "compiler": {
    "name": "solc",
    "version": "0.8.22+commit.4fc1097e.Emscripten.clang"
  },
  "schemaVersion": "3.4.8",
  "updatedAt": "2023-11-06T18:50:33.300Z",
  "networkType": "ethereum",
  "devdoc": {
    "kind": "dev",
    "methods": {},
    "version": 1
  },
  "userdoc": {
    "kind": "user",
    "methods": {},
    "version": 1
  }
}